:020000040000FA
:1000000007EF00F0900EF26EF292F28E120074D8AA
:10001000818081928194F2A028D081AA08D0060E16
:10002000836E2C0E006E010E016E71D8836A81A85A
:1000300008D05B0E836E2C0E006E010E016E67D829
:10004000836A81A608D04F0E836E2C0E006E010EBF
:10005000016E5DD8836A81AC08D03F0E836E2C0E92
:10006000006E010E016E53D8836AF2B042D08182D5
:100070008190819481AA08D0660E836E2C0E006E4A
:10008000010E016E44D8836A81A808D06D0E836E7C
:100090002C0E006E010E016E3AD8836A81A608D03C
:1000A0007D0E836E2C0E006E010E016E30D8836AB9
:1000B00081848190819281AA08D0070E836E2C0ED4
:1000C000006E010E016E23D8836A81A808D07F0ECE
:1000D000836E2C0E006E010E016E19D8836A81A604
:1000E00008D06F0E836E2C0E006E010E016E0FD8BD
:1000F000836A900EF26E8CD7F28E9268F80E936E31
:10010000946A956A966A826A836A816A12000050CC
:100110000110D8B40CD08C0E026E0252D8B403D0A9
:1001200000000206FAD70006000E015AF0D71200AE
:020000040030CA
:04000000FFF1F8FE16
:00000001FF
