:020000040000FA
:1000000002EF00F074D881808192819481A028D081
:1000100081AA08D0060E836E2C0E006E010E016EB2
:1000200071D8836A81A808D05B0E836E2C0E006E97
:10003000010E016E67D8836A81A608D04F0E836EC9
:100040002C0E006E010E016E5DD8836A81AC08D063
:100050003F0E836E2C0E006E010E016E53D8836A24
:1000600081828190819481A21ED081AA08D0660EDF
:10007000836E2C0E006E010E016E44D8836A81A837
:1000800008D06D0E836E2C0E006E010E016E3AD8F4
:10009000836A81A608D07D0E836E2C0E006E010E41
:1000A000016E30D8836A81848190819281A4ABD71C
:1000B00081AA08D0070E836E2C0E006E010E016E11
:1000C00021D8836A81A808D07F0E836E2C0E006E23
:1000D000010E016E17D8836A81A695D76F0E836EC5
:1000E0002C0E006E010E016E0DD8836A8CD7F29E25
:1000F0009268F80E936E946A956A966A826A836A29
:10010000816A120000500110D8B40CD08C0E026E1F
:100110000252D8B403D000000206FAD70006000E3F
:06012000015AF0D71200A5
:020000040030CA
:04000000FFF1F8FE16
:00000001FF
